{
  "address": "0x475Bb07102B0B5045c7E79f43ed62dDdC9b4E03E",
  "abi": [
    {
      "inputs": [
        {
          "internalType": "contract IERC20",
          "name": "_fgtsToken",
          "type": "address"
        },
        {
          "internalType": "contract IERC20",
          "name": "_realDigitalToken",
          "type": "address"
        }
      ],
      "stateMutability": "nonpayable",
      "type": "constructor"
    },
    {
      "anonymous": false,
      "inputs": [
        {
          "indexed": true,
          "internalType": "address",
          "name": "previousOwner",
          "type": "address"
        },
        {
          "indexed": true,
          "internalType": "address",
          "name": "newOwner",
          "type": "address"
        }
      ],
      "name": "OwnershipTransferred",
      "type": "event"
    },
    {
      "inputs": [
        {
          "internalType": "uint256",
          "name": "_amount",
          "type": "uint256"
        }
      ],
      "name": "borrow",
      "outputs": [],
      "stateMutability": "nonpayable",
      "type": "function"
    },
    {
      "inputs": [
        {
          "internalType": "uint256",
          "name": "_amount",
          "type": "uint256"
        }
      ],
      "name": "deposit",
      "outputs": [],
      "stateMutability": "nonpayable",
      "type": "function"
    },
    {
      "inputs": [
        {
          "internalType": "address",
          "name": "",
          "type": "address"
        }
      ],
      "name": "deposits",
      "outputs": [
        {
          "internalType": "uint256",
          "name": "",
          "type": "uint256"
        }
      ],
      "stateMutability": "view",
      "type": "function"
    },
    {
      "inputs": [],
      "name": "fgtsToken",
      "outputs": [
        {
          "internalType": "contract IERC20",
          "name": "",
          "type": "address"
        }
      ],
      "stateMutability": "view",
      "type": "function"
    },
    {
      "inputs": [],
      "name": "owner",
      "outputs": [
        {
          "internalType": "address",
          "name": "",
          "type": "address"
        }
      ],
      "stateMutability": "view",
      "type": "function"
    },
    {
      "inputs": [],
      "name": "realDigitalToken",
      "outputs": [
        {
          "internalType": "contract IERC20",
          "name": "",
          "type": "address"
        }
      ],
      "stateMutability": "view",
      "type": "function"
    },
    {
      "inputs": [],
      "name": "renounceOwnership",
      "outputs": [],
      "stateMutability": "nonpayable",
      "type": "function"
    },
    {
      "inputs": [
        {
          "internalType": "address",
          "name": "newOwner",
          "type": "address"
        }
      ],
      "name": "transferOwnership",
      "outputs": [],
      "stateMutability": "nonpayable",
      "type": "function"
    }
  ],
  "transactionHash": "0x3175cdb949059981c842c43205c6296895be7dccd60950a5b75d21f438fef0f6",
  "args": [
    "0xd30A07E994251cdB3855Cc4ab52443A3d0024756",
    "0x63A7f12c00c7a4193dB207EAB92922D1e45F74D4"
  ],
  "numDeployments": 3,
  "solcInputHash": "723e9dc6d2ea417c65a7c36bb3caeb23",
  "bytecode": "0x60806040523480156200001157600080fd5b5060405162000df438038062000df48339818101604052810190620000379190620001c4565b620000576200004b620000e160201b60201c565b620000e960201b60201c565b81600160006101000a81548173ffffffffffffffffffffffffffffffffffffffff021916908373ffffffffffffffffffffffffffffffffffffffff16021790555080600260006101000a81548173ffffffffffffffffffffffffffffffffffffffff021916908373ffffffffffffffffffffffffffffffffffffffff160217905550505062000267565b600033905090565b60008060009054906101000a900473ffffffffffffffffffffffffffffffffffffffff169050816000806101000a81548173ffffffffffffffffffffffffffffffffffffffff021916908373ffffffffffffffffffffffffffffffffffffffff1602179055508173ffffffffffffffffffffffffffffffffffffffff168173ffffffffffffffffffffffffffffffffffffffff167f8be0079c531659141344cd1fd0a4f28419497f9722a3daafe3b4186f6b6457e060405160405180910390a35050565b600081519050620001be816200024d565b92915050565b60008060408385031215620001d857600080fd5b6000620001e885828601620001ad565b9250506020620001fb85828601620001ad565b9150509250929050565b600062000212826200022d565b9050919050565b6000620002268262000205565b9050919050565b600073ffffffffffffffffffffffffffffffffffffffff82169050919050565b620002588162000219565b81146200026457600080fd5b50565b610b7d80620002776000396000f3fe608060405234801561001057600080fd5b50600436106100885760003560e01c8063b6b55f251161005b578063b6b55f25146100f1578063c5ebeaec1461010d578063f2fde38b14610129578063fc7e286d1461014557610088565b8063543b7e931461008d578063715018a6146100ab5780638da5cb5b146100b557806394c179ed146100d3575b600080fd5b610095610175565b6040516100a291906108b0565b60405180910390f35b6100b361019b565b005b6100bd6101af565b6040516100ca9190610835565b60405180910390f35b6100db6101d8565b6040516100e891906108b0565b60405180910390f35b61010b600480360381019061010691906106d3565b6101fe565b005b610127600480360381019061012291906106d3565b610309565b005b610143600480360381019061013e9190610681565b61045c565b005b61015f600480360381019061015a9190610681565b6104e0565b60405161016c919061092b565b60405180910390f35b600260009054906101000a900473ffffffffffffffffffffffffffffffffffffffff1681565b6101a36104f8565b6101ad6000610576565b565b60008060009054906101000a900473ffffffffffffffffffffffffffffffffffffffff16905090565b600160009054906101000a900473ffffffffffffffffffffffffffffffffffffffff1681565b600160009054906101000a900473ffffffffffffffffffffffffffffffffffffffff1673ffffffffffffffffffffffffffffffffffffffff166323b872dd3330846040518463ffffffff1660e01b815260040161025d93929190610850565b602060405180830381600087803b15801561027757600080fd5b505af115801561028b573d6000803e3d6000fd5b505050506040513d601f19601f820116820180604052508101906102af91906106aa565b5080600360003373ffffffffffffffffffffffffffffffffffffffff1673ffffffffffffffffffffffffffffffffffffffff16815260200190815260200160002060008282546102ff9190610957565b9250508190555050565b60006064604b600360003373ffffffffffffffffffffffffffffffffffffffff1673ffffffffffffffffffffffffffffffffffffffff1681526020019081526020016000205461035991906109de565b61036391906109ad565b9050808211156103a8576040517f08c379a000000000000000000000000000000000000000000000000000000000815260040161039f906108cb565b60405180910390fd5b600260009054906101000a900473ffffffffffffffffffffffffffffffffffffffff1673ffffffffffffffffffffffffffffffffffffffff1663a9059cbb33846040518363ffffffff1660e01b8152600401610405929190610887565b602060405180830381600087803b15801561041f57600080fd5b505af1158015610433573d6000803e3d6000fd5b505050506040513d601f19601f8201168201806040525081019061045791906106aa565b505050565b6104646104f8565b600073ffffffffffffffffffffffffffffffffffffffff168173ffffffffffffffffffffffffffffffffffffffff1614156104d4576040517f08c379a00000000000000000000000000000000000000000000000000000000081526004016104cb906108eb565b60405180910390fd5b6104dd81610576565b50565b60036020528060005260406000206000915090505481565b61050061063a565b73ffffffffffffffffffffffffffffffffffffffff1661051e6101af565b73ffffffffffffffffffffffffffffffffffffffff1614610574576040517f08c379a000000000000000000000000000000000000000000000000000000000815260040161056b9061090b565b60405180910390fd5b565b60008060009054906101000a900473ffffffffffffffffffffffffffffffffffffffff169050816000806101000a81548173ffffffffffffffffffffffffffffffffffffffff021916908373ffffffffffffffffffffffffffffffffffffffff1602179055508173ffffffffffffffffffffffffffffffffffffffff168173ffffffffffffffffffffffffffffffffffffffff167f8be0079c531659141344cd1fd0a4f28419497f9722a3daafe3b4186f6b6457e060405160405180910390a35050565b600033905090565b60008135905061065181610b02565b92915050565b60008151905061066681610b19565b92915050565b60008135905061067b81610b30565b92915050565b60006020828403121561069357600080fd5b60006106a184828501610642565b91505092915050565b6000602082840312156106bc57600080fd5b60006106ca84828501610657565b91505092915050565b6000602082840312156106e557600080fd5b60006106f38482850161066c565b91505092915050565b61070581610a38565b82525050565b61071481610a80565b82525050565b6000610727603383610946565b91507f596f752063616e6e6f7420626f72726f77206d6f7265207468616e203735252060008301527f6f6620796f757220636f6c6c61746572616c21000000000000000000000000006020830152604082019050919050565b600061078d602683610946565b91507f4f776e61626c653a206e6577206f776e657220697320746865207a65726f206160008301527f64647265737300000000000000000000000000000000000000000000000000006020830152604082019050919050565b60006107f3602083610946565b91507f4f776e61626c653a2063616c6c6572206973206e6f7420746865206f776e65726000830152602082019050919050565b61082f81610a76565b82525050565b600060208201905061084a60008301846106fc565b92915050565b600060608201905061086560008301866106fc565b61087260208301856106fc565b61087f6040830184610826565b949350505050565b600060408201905061089c60008301856106fc565b6108a96020830184610826565b9392505050565b60006020820190506108c5600083018461070b565b92915050565b600060208201905081810360008301526108e48161071a565b9050919050565b6000602082019050818103600083015261090481610780565b9050919050565b60006020820190508181036000830152610924816107e6565b9050919050565b60006020820190506109406000830184610826565b92915050565b600082825260208201905092915050565b600061096282610a76565b915061096d83610a76565b9250827fffffffffffffffffffffffffffffffffffffffffffffffffffffffffffffffff038211156109a2576109a1610aa4565b5b828201905092915050565b60006109b882610a76565b91506109c383610a76565b9250826109d3576109d2610ad3565b5b828204905092915050565b60006109e982610a76565b91506109f483610a76565b9250817fffffffffffffffffffffffffffffffffffffffffffffffffffffffffffffffff0483118215151615610a2d57610a2c610aa4565b5b828202905092915050565b6000610a4382610a56565b9050919050565b60008115159050919050565b600073ffffffffffffffffffffffffffffffffffffffff82169050919050565b6000819050919050565b6000610a8b82610a92565b9050919050565b6000610a9d82610a56565b9050919050565b7f4e487b7100000000000000000000000000000000000000000000000000000000600052601160045260246000fd5b7f4e487b7100000000000000000000000000000000000000000000000000000000600052601260045260246000fd5b610b0b81610a38565b8114610b1657600080fd5b50565b610b2281610a4a565b8114610b2d57600080fd5b50565b610b3981610a76565b8114610b4457600080fd5b5056fea264697066735822122007f2bdddbe1c9dea01ab9ae86b1e76039f9fb0c30855e5212c5e1d088199396164736f6c63430008000033",
  "devdoc": {
    "kind": "dev",
    "methods": {
      "owner()": {
        "details": "Returns the address of the current owner."
      },
      "renounceOwnership()": {
        "details": "Leaves the contract without owner. It will not be possible to call `onlyOwner` functions. Can only be called by the current owner. NOTE: Renouncing ownership will leave the contract without an owner, thereby disabling any functionality that is only available to the owner."
      },
      "transferOwnership(address)": {
        "details": "Transfers ownership of the contract to a new account (`newOwner`). Can only be called by the current owner."
      }
    },
    "version": 1
  },
  "userdoc": {
    "kind": "user",
    "methods": {},
    "version": 1
  },
  "storageLayout": {
    "storage": [
      {
        "astId": 7,
        "contract": "contracts/LoanContract.sol:LoanContract",
        "label": "_owner",
        "offset": 0,
        "slot": "0",
        "type": "t_address"
      },
      {
        "astId": 880,
        "contract": "contracts/LoanContract.sol:LoanContract",
        "label": "fgtsToken",
        "offset": 0,
        "slot": "1",
        "type": "t_contract(IERC20)777"
      },
      {
        "astId": 883,
        "contract": "contracts/LoanContract.sol:LoanContract",
        "label": "realDigitalToken",
        "offset": 0,
        "slot": "2",
        "type": "t_contract(IERC20)777"
      },
      {
        "astId": 887,
        "contract": "contracts/LoanContract.sol:LoanContract",
        "label": "deposits",
        "offset": 0,
        "slot": "3",
        "type": "t_mapping(t_address,t_uint256)"
      }
    ],
    "types": {
      "t_address": {
        "encoding": "inplace",
        "label": "address",
        "numberOfBytes": "20"
      },
      "t_contract(IERC20)777": {
        "encoding": "inplace",
        "label": "contract IERC20",
        "numberOfBytes": "20"
      },
      "t_mapping(t_address,t_uint256)": {
        "encoding": "mapping",
        "key": "t_address",
        "label": "mapping(address => uint256)",
        "numberOfBytes": "32",
        "value": "t_uint256"
      },
      "t_uint256": {
        "encoding": "inplace",
        "label": "uint256",
        "numberOfBytes": "32"
      }
    }
  }
}